{
  "contractName": "Coinflip",
  "abi": [
    {
      "inputs": [],
      "payable": true,
      "stateMutability": "payable",
      "type": "constructor"
    },
    {
      "anonymous": false,
      "inputs": [
        {
          "indexed": true,
          "internalType": "address",
          "name": "user",
          "type": "address"
        },
        {
          "indexed": false,
          "internalType": "uint256",
          "name": "amount",
          "type": "uint256"
        },
        {
          "indexed": false,
          "internalType": "uint256",
          "name": "balance",
          "type": "uint256"
        }
      ],
      "name": "DepositToContract",
      "type": "event"
    },
    {
      "anonymous": false,
      "inputs": [
        {
          "indexed": true,
          "internalType": "address",
          "name": "user",
          "type": "address"
        },
        {
          "indexed": false,
          "internalType": "uint256",
          "name": "amount",
          "type": "uint256"
        },
        {
          "indexed": false,
          "internalType": "uint256",
          "name": "balance",
          "type": "uint256"
        }
      ],
      "name": "DepositToPlayer",
      "type": "event"
    },
    {
      "anonymous": false,
      "inputs": [
        {
          "indexed": true,
          "internalType": "address",
          "name": "user",
          "type": "address"
        },
        {
          "indexed": false,
          "internalType": "uint256",
          "name": "amount",
          "type": "uint256"
        },
        {
          "indexed": false,
          "internalType": "uint256",
          "name": "balance",
          "type": "uint256"
        }
      ],
      "name": "WithdrawAllFromContract",
      "type": "event"
    },
    {
      "anonymous": false,
      "inputs": [
        {
          "indexed": true,
          "internalType": "address",
          "name": "user",
          "type": "address"
        },
        {
          "indexed": false,
          "internalType": "uint256",
          "name": "amount",
          "type": "uint256"
        },
        {
          "indexed": false,
          "internalType": "uint256",
          "name": "balance",
          "type": "uint256"
        }
      ],
      "name": "WithdrawFromPlayer",
      "type": "event"
    },
    {
      "constant": true,
      "inputs": [],
      "name": "balance",
      "outputs": [
        {
          "internalType": "uint256",
          "name": "",
          "type": "uint256"
        }
      ],
      "payable": false,
      "stateMutability": "view",
      "type": "function"
    },
    {
      "constant": true,
      "inputs": [],
      "name": "owner",
      "outputs": [
        {
          "internalType": "address",
          "name": "",
          "type": "address"
        }
      ],
      "payable": false,
      "stateMutability": "view",
      "type": "function"
    },
    {
      "constant": true,
      "inputs": [
        {
          "internalType": "address",
          "name": "",
          "type": "address"
        }
      ],
      "name": "playerBalance",
      "outputs": [
        {
          "internalType": "uint256",
          "name": "",
          "type": "uint256"
        }
      ],
      "payable": false,
      "stateMutability": "view",
      "type": "function"
    },
    {
      "constant": true,
      "inputs": [],
      "name": "result",
      "outputs": [
        {
          "internalType": "bool",
          "name": "",
          "type": "bool"
        }
      ],
      "payable": false,
      "stateMutability": "view",
      "type": "function"
    },
    {
      "constant": false,
      "inputs": [
        {
          "internalType": "bool",
          "name": "coinSide",
          "type": "bool"
        },
        {
          "internalType": "uint256",
          "name": "value",
          "type": "uint256"
        }
      ],
      "name": "playFlipCoin",
      "outputs": [],
      "payable": false,
      "stateMutability": "nonpayable",
      "type": "function"
    },
    {
      "constant": true,
      "inputs": [],
      "name": "printPlayer",
      "outputs": [
        {
          "internalType": "uint256",
          "name": "",
          "type": "uint256"
        },
        {
          "internalType": "uint256",
          "name": "",
          "type": "uint256"
        },
        {
          "internalType": "uint256",
          "name": "",
          "type": "uint256"
        }
      ],
      "payable": false,
      "stateMutability": "view",
      "type": "function"
    },
    {
      "constant": false,
      "inputs": [
        {
          "internalType": "string",
          "name": "newMessage",
          "type": "string"
        }
      ],
      "name": "setMessage",
      "outputs": [],
      "payable": false,
      "stateMutability": "nonpayable",
      "type": "function"
    },
    {
      "constant": true,
      "inputs": [],
      "name": "getMessage",
      "outputs": [
        {
          "internalType": "string",
          "name": "",
          "type": "string"
        }
      ],
      "payable": false,
      "stateMutability": "view",
      "type": "function"
    },
    {
      "constant": false,
      "inputs": [
        {
          "internalType": "bool",
          "name": "newResult",
          "type": "bool"
        }
      ],
      "name": "setResult",
      "outputs": [],
      "payable": false,
      "stateMutability": "nonpayable",
      "type": "function"
    },
    {
      "constant": false,
      "inputs": [
        {
          "internalType": "uint256",
          "name": "newBalance",
          "type": "uint256"
        }
      ],
      "name": "setBalance",
      "outputs": [],
      "payable": false,
      "stateMutability": "nonpayable",
      "type": "function"
    },
    {
      "constant": true,
      "inputs": [],
      "name": "getBalance",
      "outputs": [
        {
          "internalType": "uint256",
          "name": "",
          "type": "uint256"
        }
      ],
      "payable": false,
      "stateMutability": "view",
      "type": "function"
    },
    {
      "constant": false,
      "inputs": [],
      "name": "depositToContract",
      "outputs": [],
      "payable": true,
      "stateMutability": "payable",
      "type": "function"
    },
    {
      "constant": false,
      "inputs": [],
      "name": "withdrawAllFromContract",
      "outputs": [],
      "payable": false,
      "stateMutability": "nonpayable",
      "type": "function"
    },
    {
      "constant": false,
      "inputs": [],
      "name": "depositToPlayer",
      "outputs": [],
      "payable": true,
      "stateMutability": "payable",
      "type": "function"
    },
    {
      "constant": false,
      "inputs": [
        {
          "internalType": "uint256",
          "name": "value",
          "type": "uint256"
        }
      ],
      "name": "withdrawFromPlayer",
      "outputs": [],
      "payable": false,
      "stateMutability": "nonpayable",
      "type": "function"
    }
  ],
  "bytecode": "0x60806040526040518060400160405280600a81526020017f48656c6c6f576f726c64000000000000000000000000000000000000000000008152506001908051906020019061004f9291906100f9565b506000600360146101000a81548160ff021916908315150217905550336000806101000a81548173ffffffffffffffffffffffffffffffffffffffff021916908373ffffffffffffffffffffffffffffffffffffffff16021790555033600360006101000a81548173ffffffffffffffffffffffffffffffffffffffff021916908373ffffffffffffffffffffffffffffffffffffffff160217905550600060028190555061019e565b828054600181600116156101000203166002900490600052602060002090601f016020900481019282601f1061013a57805160ff1916838001178555610168565b82800160010185558215610168579182015b8281111561016757825182559160200191906001019061014c565b5b5090506101759190610179565b5090565b61019b91905b8082111561019757600081600090555060010161017f565b5090565b90565b610f50806101ad6000396000f3fe6080604052600436106100e85760003560e01c8063b69ef8a81161008a578063f4b4dc2e11610059578063f4b4dc2e1461041b578063f6b4dafe14610458578063f6b6f57514610462578063fb1669ca146104a9576100e8565b8063b69ef8a81461031d578063bbb1939914610348578063c8f781c214610381578063ce6d41de1461038b576100e8565b80634e33f83b116100c65780634e33f83b146101f7578063653721471461025c578063655c9aad1461028b5780638da5cb5b146102c6576100e8565b806312065fe0146100ed578063368b8772146101185780633e2acfbc146101e0575b600080fd5b3480156100f957600080fd5b506101026104e4565b6040518082815260200191505060405180910390f35b34801561012457600080fd5b506101de6004803603602081101561013b57600080fd5b810190808035906020019064010000000081111561015857600080fd5b82018360208201111561016a57600080fd5b8035906020019184600183028401116401000000008311171561018c57600080fd5b91908080601f016020809104026020016040519081016040528093929190818152602001838380828437600081840152601f19601f8201169050808301925050505050505091929192905050506104ee565b005b3480156101ec57600080fd5b506101f5610508565b005b34801561020357600080fd5b506102466004803603602081101561021a57600080fd5b81019080803573ffffffffffffffffffffffffffffffffffffffff169060200190929190505050610621565b6040518082815260200191505060405180910390f35b34801561026857600080fd5b50610271610639565b604051808215151515815260200191505060405180910390f35b34801561029757600080fd5b506102c4600480360360208110156102ae57600080fd5b810190808035906020019092919050505061064c565b005b3480156102d257600080fd5b506102db6107cf565b604051808273ffffffffffffffffffffffffffffffffffffffff1673ffffffffffffffffffffffffffffffffffffffff16815260200191505060405180910390f35b34801561032957600080fd5b506103326107f4565b6040518082815260200191505060405180910390f35b34801561035457600080fd5b5061035d6107fa565b60405180848152602001838152602001828152602001935050505060405180910390f35b6103896108d3565b005b34801561039757600080fd5b506103a06109ac565b6040518080602001828103825283818151815260200191508051906020019080838360005b838110156103e05780820151818401526020810190506103c5565b50505050905090810190601f16801561040d5780820380516001836020036101000a031916815260200191505b509250505060405180910390f35b34801561042757600080fd5b506104566004803603602081101561043e57600080fd5b81019080803515159060200190929190505050610a4e565b005b610460610a6b565b005b34801561046e57600080fd5b506104a76004803603604081101561048557600080fd5b8101908080351515906020019092919080359060200190929190505050610b65565b005b3480156104b557600080fd5b506104e2600480360360208110156104cc57600080fd5b8101908080359060200190929190505050610d6d565b005b6000600254905090565b8060019080519060200190610504929190610e76565b5050565b6000809054906101000a900473ffffffffffffffffffffffffffffffffffffffff1673ffffffffffffffffffffffffffffffffffffffff163373ffffffffffffffffffffffffffffffffffffffff161461056157600080fd5b60006002541161057057600080fd5b6000600254905060006002819055503373ffffffffffffffffffffffffffffffffffffffff166108fc829081150290604051600060405180830381858888f193505050501580156105c5573d6000803e3d6000fd5b503373ffffffffffffffffffffffffffffffffffffffff167f6d59afad85233a6fb122c14c480c96681a2470a8cb0c8e7f291b30fbadaa97a282600254604051808381526020018281526020019250505060405180910390a250565b60046020528060005260406000206000915090505481565b600360149054906101000a900460ff1681565b80600460003373ffffffffffffffffffffffffffffffffffffffff1673ffffffffffffffffffffffffffffffffffffffff16815260200190815260200160002054101561069857600080fd5b60008082905080600460003373ffffffffffffffffffffffffffffffffffffffff1673ffffffffffffffffffffffffffffffffffffffff16815260200190815260200160002060008282540392505081905550600460003373ffffffffffffffffffffffffffffffffffffffff1673ffffffffffffffffffffffffffffffffffffffff1681526020019081526020016000205491503373ffffffffffffffffffffffffffffffffffffffff166108fc829081150290604051600060405180830381858888f19350505050158015610773573d6000803e3d6000fd5b503373ffffffffffffffffffffffffffffffffffffffff167fc715297b797fb8d4f0147d438b2aaee3c6dc6e793c2115b046ebf2c7ebe5d44b8284604051808381526020018281526020019250505060405180910390a2505050565b6000809054906101000a900473ffffffffffffffffffffffffffffffffffffffff1681565b60025481565b6000806000600560003373ffffffffffffffffffffffffffffffffffffffff1673ffffffffffffffffffffffffffffffffffffffff16815260200190815260200160002060000154600560003373ffffffffffffffffffffffffffffffffffffffff1673ffffffffffffffffffffffffffffffffffffffff16815260200190815260200160002060010154600560003373ffffffffffffffffffffffffffffffffffffffff1673ffffffffffffffffffffffffffffffffffffffff16815260200190815260200160002060020154925092509250909192565b6611c37937e08000803410156108e857600080fd5b6000809054906101000a900473ffffffffffffffffffffffffffffffffffffffff1673ffffffffffffffffffffffffffffffffffffffff163373ffffffffffffffffffffffffffffffffffffffff161461094157600080fd5b346002600082825401925050819055503373ffffffffffffffffffffffffffffffffffffffff167f719a678c6170368d3e08a7171825b667d9f9b32520826d4fab3af939fef66e4234600254604051808381526020018281526020019250505060405180910390a250565b606060018054600181600116156101000203166002900480601f016020809104026020016040519081016040528092919081815260200182805460018160011615610100020316600290048015610a445780601f10610a1957610100808354040283529160200191610a44565b820191906000526020600020905b815481529060010190602001808311610a2757829003601f168201915b5050505050905090565b80600360146101000a81548160ff02191690831515021790555050565b6611c37937e0800080341015610a8057600080fd5b34600460003373ffffffffffffffffffffffffffffffffffffffff1673ffffffffffffffffffffffffffffffffffffffff168152602001908152602001600020600082825401925050819055503373ffffffffffffffffffffffffffffffffffffffff167f138747a4b3a62306122c2f21145461ac8f0ec1821e0c02fb9ca65cd97399560434600460003373ffffffffffffffffffffffffffffffffffffffff1673ffffffffffffffffffffffffffffffffffffffff16815260200190815260200160002054604051808381526020018281526020019250505060405180910390a250565b610b6d610d77565b600360146101000a81548160ff021916908315150217905550811515600360149054906101000a900460ff1615151415610c8757610bab3382610db4565b600460003373ffffffffffffffffffffffffffffffffffffffff1673ffffffffffffffffffffffffffffffffffffffff16815260200190815260200160002054600560003373ffffffffffffffffffffffffffffffffffffffff1673ffffffffffffffffffffffffffffffffffffffff168152602001908152602001600020600001819055506001600560003373ffffffffffffffffffffffffffffffffffffffff1673ffffffffffffffffffffffffffffffffffffffff16815260200190815260200160002060010160008282540192505081905550610d69565b610c913382610e15565b600460003373ffffffffffffffffffffffffffffffffffffffff1673ffffffffffffffffffffffffffffffffffffffff16815260200190815260200160002054600560003373ffffffffffffffffffffffffffffffffffffffff1673ffffffffffffffffffffffffffffffffffffffff168152602001908152602001600020600001819055506001600560003373ffffffffffffffffffffffffffffffffffffffff1673ffffffffffffffffffffffffffffffffffffffff168152602001908152602001600020600201600082825401925050819055505b5050565b8060028190555050565b60008060024281610d8457fe5b061415610d945760009050610db1565b600160024281610da057fe5b061415610db05760019050610db1565b5b90565b8060026000828254039250508190555080600460008473ffffffffffffffffffffffffffffffffffffffff1673ffffffffffffffffffffffffffffffffffffffff168152602001908152602001600020600082825401925050819055505050565b8060026000828254019250508190555080600460008473ffffffffffffffffffffffffffffffffffffffff1673ffffffffffffffffffffffffffffffffffffffff168152602001908152602001600020600082825403925050819055505050565b828054600181600116156101000203166002900490600052602060002090601f016020900481019282601f10610eb757805160ff1916838001178555610ee5565b82800160010185558215610ee5579182015b82811115610ee4578251825591602001919060010190610ec9565b5b509050610ef29190610ef6565b5090565b610f1891905b80821115610f14576000816000905550600101610efc565b5090565b9056fea265627a7a723158208a603a1bc6b974b8289707c35551aafad6d8f69a1008ebb548f4909a242c1b1a64736f6c634300050c0032",
  "source": "import \"./Ownable.sol\";\npragma solidity 0.5.12;\n\ncontract Coinflip is Ownable{\n\n    string message = \"HelloWorld\";\n    uint public balance;\n    address private owner;\n    bool public result = false;\n    mapping(address => uint) public playerBalance;\n    mapping(address => Player) private playerRecord;\n\n    struct Player {                                       \n        uint balance;     \n        uint countWin;                                \n        uint countLoss;                                    \n    }\n    \n    // events\n    //event SetBalance(address indexed user, uint256 balance);\n    //event GetBalance(address indexed user, uint256 balance);\n    event DepositToContract(address indexed user, uint256 amount, uint256 balance);\n    event WithdrawAllFromContract(address indexed user, uint256 amount, uint256 balance);\n    event DepositToPlayer(address indexed user, uint256 amount, uint256 balance);\n    event WithdrawFromPlayer(address indexed user, uint256 amount, uint256 balance);\n    \n    constructor() payable public {\n        owner = msg.sender;\n        balance = 0;\n    }\n\n    modifier costs(uint cost){\n        require(msg.value >= cost);\n        _;\n    }\n\n    function flip() private view returns(bool) {\n        if(now % 2 == 0){\n            return false;\n        }\n        else if(now % 2 == 1){\n            return true;\n        }       \n    }   \n        \n    function playFlipCoin(bool coinSide, uint value) public {\n        \n        result = flip();\n\n        if (result == coinSide) {\n            transferToPlayer(msg.sender,value);\n            playerRecord[msg.sender].balance = playerBalance[msg.sender];\n            playerRecord[msg.sender].countWin += 1;\n        } else {\n            transferToContract(msg.sender,value);\n            playerRecord[msg.sender].balance = playerBalance[msg.sender];\n            playerRecord[msg.sender].countLoss += 1;            \n        }\n    }\n\n    function printPlayer() public view returns (uint, uint, uint) {\n        return (playerRecord[msg.sender].balance, playerRecord[msg.sender].countWin, playerRecord[msg.sender].countLoss);\n    }\n    \n    function setMessage(string memory newMessage) public {\n        message = newMessage;\n    }\n\n    function getMessage() public view returns (string memory) {\n        return message;\n    }\n\n    function setResult(bool newResult) public {\n        result = newResult;\n    }\n    \n    function setBalance(uint newBalance) public {\n        balance = newBalance;\n        //emit SetBalance(msg.sender, balance);\n    }\n\n    function getBalance() public view returns(uint) {\n        return balance;\n        //emit GetBalance(msg.sender, balance);\n    }\n\n    // owner deposite fund to contract\n    function depositToContract() public payable costs(0.005 ether) onlyOwner {\n        balance += msg.value;\n        emit DepositToContract(msg.sender, msg.value, balance);\n    }\n\n    // owner withdraw fund from contract\n    function withdrawAllFromContract() public onlyOwner {\n        require(balance > 0);\n        uint toTransfer = balance;\n        balance = 0;\n        msg.sender.transfer(toTransfer);\n        emit WithdrawAllFromContract(msg.sender, toTransfer, balance);\n    }\n\n    // transfer fund from contract balance to player\n    function transferToPlayer(address payable player, uint value) private {\n        balance -= value;\n        playerBalance[player] += value; \n    }\n\n    // tranfer fund from player to contract balance\n    function transferToContract(address payable player, uint value) private {\n        balance += value;\n        playerBalance[player] -= value;\n    }\n\n    // deposite fund to contract for player\n    function depositToPlayer() public payable costs(0.005 ether) {\n        playerBalance[msg.sender] += msg.value;\n        emit DepositToPlayer(msg.sender, msg.value, playerBalance[msg.sender]); \n    }\n\n    // withdraw fund from contract for player\n    function withdrawFromPlayer(uint value) public {\n        require(playerBalance[msg.sender] >= value);\n        uint playerbalance;\n        uint toTransfer = value;\n        playerBalance[msg.sender] -= toTransfer;\n        playerbalance = playerBalance[msg.sender];\n        msg.sender.transfer(toTransfer);\n        emit WithdrawFromPlayer(msg.sender, toTransfer, playerbalance);\n    }\n\n}",
  "sourcePath": "/Users/pkwok/Xproject/4. Blockchain/solidity-201/dapp-coinflip/contracts/Coinflip.sol",
  "compiler": {
    "name": "solc",
    "version": "0.5.12+commit.7709ece9.Emscripten.clang"
  },
  "schemaVersion": "3.0.16",
  "updatedAt": "2021-01-02T15:33:46.586Z",
  "devdoc": {
    "methods": {}
  },
  "userdoc": {
    "methods": {}
  }
}